:020000040800F2
:1000000000400020759A00086B1E00086D1E000855
:100010006F1E0008711E0008731E0008000000001B
:10002000000000000000000000000000751E000835
:100030000000000000000000771E0008791E000884
:10004000BD9A0008811E0008BD9A0008BD9A0008EC
:10005000BD9A0008BD9A0008BD9A0008BD9A000824
:10006000BD9A0008BD9A0008BD9A0008BD9A000814
:10007000BD9A0008BD9A0008BD9A0008BD9A000804
:10008000BD9A0008BD9A0008BD9A0008BD9A0008F4
:10009000BD9A00087D1E0008BD9A0008BD9A0008A0
:1000A000BD9A0008BD9A0008BD9A0008BD9A0008D4
:1000B000BD9A0008BD9A0008BD9A0008BD9A0008C4
:1000C000BD9A0008BD9A00087B1E0008BD9A000872
:0400D000BD9A0008CD
:1000D8000348044B834202D0034B03B118477047CF
:1000E800A0040020A00400200000000005480649E4
:1000F8000B1AD90F01EBA301491002D0034B03B12E
:1001080018477047A0040020A00400200000000049
:1001180010B5064C237843B9FFF7DAFF044B13B147
:100128000448AFF300800123237010BDA004002011
:1001380000000000D49A000808B5044B1BB104491C
:100148000448AFF30080BDE80840CFE70000000096
:10015800A4040020D49A000890B589B000AFF860D4
:100168007B600B46FB721346BB723A4B07F11004D7
:100178000FCB84E80F00FB7A102B07D0FB7A182BE3
:1001880004D0FB7A202B01D006235EE0324B5B685B
:10019800314A43F0090353602F4B32221A60BB7A6D
:1001A80043F01003DAB22C4B9A61FB7A202B0ED065
:1001B800202B10DC102B02D0182B04D00BE0264B80
:1001C8000022DA6008E0244B0422DA6004E0224BC3
:1001D8000822DA6000E000BF00BF1F4B5B6803F035
:1001E8000103002BF9D1FB7A1A46F9681B4800F085
:1001F80027FF194BDB68184A43F08203D36000BF1E
:10020800154BDB6803F08003002BF9D1124BDB6838
:10021800114A23F00303D360BB7A012B05D0BB7AC4
:10022800022B02D0BB7A032B04D1102279680C4828
:1002380000F006FFBB7A032B06D10A4B1C4607F1D8
:1002480010030FCB84E80F00002318462437BD465F
:1002580090BD00BF7C9D000800200340401603406D
:10026800101603400016034080B584B000AFF86054
:100278007B600B467B8113467B727B7A002B0CD00C
:100288001F4BDB681E4A23F00303D3601C4BDB685B
:100298001B4A43F00103D3602AE0194BDB68184A74
:1002A80023F00303D360164B154ADB68D3601FE0C5
:1002B8001022F968134800F0C3FE114BDB68104A9E
:1002C80043F08003D36000BF0D4BDB6803F080036D
:1002D800002BF9D110220C49786800F0B1FE7B8917
:1002E800103B7B81FB681033FB607B6810337B60BD
:1002F8007B89002BDCD1002318461037BD4680BD12
:1003080000200340001003402010034080B400AFD9
:100318000B4B5B680A4A43F00103536000BF084B6C
:100328005B6803F00103002BF9D1054B5B68044AB5
:1003380023F00803536000231846BD4680BC70476D
:100348000020034081F0004102E000BF83F0004339
:1003580030B54FEA41044FEA430594EA050F08BF58
:1003680090EA020F1FBF54EA000C55EA020C7FEA1C
:10037800645C7FEA655C00F0E2804FEA5454D4EB99
:100388005555B8BF6D420CDD2C4480EA020281EA63
:10039800030382EA000083EA010180EA020281EA9B
:1003A8000303362D88BF30BD11F0004F4FEA0131ED
:1003B8004FF4801C4CEA113102D0404261EB4101FC
:1003C80013F0004F4FEA03334CEA133302D0524282
:1003D80063EB430394EA050F00F0A780A4F101043E
:1003E800D5F1200E0DDB02FA0EFC22FA05F2801878
:1003F80041F1000103FA0EF2801843FA05F359415E
:100408000EE0A5F120050EF1200E012A03FA0EFCDC
:1004180028BF4CF0020C43FA05F3C01851EBE37106
:1004280001F0004507D54FF0000EDCF1000C7EEB23
:1004380000006EEB0101B1F5801F1BD3B1F5001F61
:100448000CD349085FEA30004FEA3C0C04F1010480
:100458004FEA445212F5800F80F09A80BCF1004FA9
:1004680008BF5FEA500C50F1000041EB045141EA2B
:10047800050130BD5FEA4C0C404141EB0101013CF4
:1004880028BFB1F5801FE9D291F0000F04BF0146E3
:100498000020B1FA81F308BF2033A3F10B03B3F1B5
:1004A80020020CDA0C3208DD02F1140CC2F10C0245
:1004B80001FA0CF021FA02F10CE002F11402D8BFA3
:1004C800C2F1200C01FA02F120FA0CFCDCBF41EA6F
:1004D8000C019040E41AA2BF01EB0451294330BD3E
:1004E8006FEA04041F3C1CDA0C340EDC04F114041B
:1004F800C4F1200220FA04F001FA02F340EA0300F2
:1005080021FA04F345EA030130BDC4F10C04C4F137
:10051800200220FA02F001FA04F340EA0300294617
:1005280030BD21FA04F0294630BD94F0000F83F461
:10053800801306BF81F480110134013D4EE77FEA44
:10054800645C18BF7FEA655C29D094EA050F08BF90
:1005580090EA020F05D054EA000C04BF1946104671
:1005680030BD91EA030F1EBF0021002030BD5FEAB5
:10057800545C05D14000494128BF41F0004130BDDD
:1005880014F580043CBF01F5801130BD01F0004531
:1005980045F0FE4141F470014FF0000030BD7FEAA4
:1005A800645C1ABF194610467FEA655C1CBF0B469F
:1005B800024650EA013406BF52EA033591EA030FB6
:1005C80041F4002130BD00BF90F0000F04BF0021AE
:1005D800704730B54FF4806404F132044FF00005E1
:1005E8004FF0000150E700BF90F0000F04BF00215A
:1005F800704730B54FF4806404F1320410F00045C0
:1006080048BF40424FF000013EE700BF42004FEABA
:10061800E2014FEA31014FEA02701FBF12F07F4337
:1006280093F07F4F81F06051704732F07F4208BFEE
:10063800704793F07F4F04BF41F40021704730B5F5
:100648004FF4607401F0004521F000411CE700BF41
:1006580050EA010208BF704730B54FF000050AE0C4
:1006680050EA010208BF704730B511F0004502D5C5
:10067800404261EB41014FF4806404F132045FEAC7
:10068800915C3FF4D8AE4FF003025FEADC0C18BF70
:1006980003325FEADC0C18BF033202EBDC02C2F162
:1006A800200300FA03FC20FA02F001FA03FE40EAF4
:1006B8000E0021FA02F11444BDE600BF70B54FF0F8
:1006C800FF0C4CF4E06C1CEA11541DBF1CEA1355D6
:1006D80094EA0C0F95EA0C0F00F0DEF82C4481EA3E
:1006E800030621EA4C5123EA4C5350EA013518BF5E
:1006F80052EA033541F4801143F4801338D0A0FB4B
:1007080002CE4FF00005E1FB02E506F00042E0FBF7
:1007180003E54FF00006E1FB03569CF0000F18BFFD
:100728004EF0010EA4F1FF04B6F5007F64F54074A5
:1007380004D25FEA4E0E6D4146EB060642EAC62138
:1007480041EA55514FEAC52040EA5E504FEACE2EA5
:10075800B4F1FD0C88BFBCF5E06F1ED8BEF1004FA8
:1007680008BF5FEA500E50F1000041EB045170BD24
:1007780006F0004646EA010140EA020081EA030168
:10078800B4EB5C04C2BFD4EB0C0541EA045170BD64
:1007980041F480114FF0000E013C00F3AB8014F1DE
:1007A800360FDEBF002001F0004170BDC4F1000427
:1007B800203C35DA0C341BDC04F11404C4F12005A8
:1007C80000FA05F320FA04F001FA05F240EA020003
:1007D80001F0004221F0004110EBD37021FA04F639
:1007E80042EB06015EEA430E08BF20EAD37070BDF3
:1007F800C4F10C04C4F1200500FA04F320FA05F052
:1008080001FA04F240EA020001F0004110EBD37053
:1008180041F100015EEA430E08BF20EAD37070BDC3
:10082800C4F1200500FA05F24EEA020E20FA04F39C
:1008380001FA05F243EA020321FA04F001F000414B
:1008480021FA04F220EA020000EBD3705EEA430EBC
:1008580008BF20EAD37070BD94F0000F0FD101F0EB
:100868000046400041EB010111F4801F08BF013C24
:10087800F7D041EA060195F0000F18BF704703F062
:100888000046520043EB030313F4801F08BF013DE9
:10089800F7D043EA0603704794EA0C0F0CEA1355A5
:1008A80018BF95EA0C0F0CD050EA410618BF52EA5F
:1008B8004306D1D181EA030101F000414FF0000065
:1008C80070BD50EA410606BF1046194652EA430673
:1008D80019D094EA0C0F02D150EA013613D195EAE7
:1008E8000C0F05D152EA03361CBF104619460AD12F
:1008F80081EA030101F0004141F0FE4141F4700139
:100908004FF0000070BD41F0FE4141F4780170BD28
:1009180070B54FF0FF0C4CF4E06C1CEA11541DBF8D
:100928001CEA135594EA0C0F95EA0C0F00F0A7F88F
:10093800A4EB050481EA030E52EA03354FEA0131BC
:1009480000F088804FEA03334FF0805545EA1313CF
:1009580043EA12634FEA022245EA111545EA106597
:100968004FEA00260EF000419D4208BF964244F12E
:10097800FD0404F5407402D25B084FEA3202B61A4D
:1009880065EB03055B084FEA32024FF480104FF421
:10099800002CB6EB020E75EB030E22BFB61A754695
:1009A80040EA0C005B084FEA3202B6EB020E75EB28
:1009B800030E22BFB61A754640EA5C005B084FEA90
:1009C8003202B6EB020E75EB030E22BFB61A75465D
:1009D80040EA9C005B084FEA3202B6EB020E75EB68
:1009E800030E22BFB61A754640EADC0055EA060E29
:1009F80018D04FEA051545EA16754FEA06164FEA6C
:100A0800C30343EA52734FEAC2025FEA1C1CC0D117
:100A180011F4801F0BD141EA00014FF000004FF0A4
:100A2800004CB6E711F4801F04BF01430020B4F165
:100A3800FD0C88BFBCF5E06F3FF6AFAEB5EB030C1D
:100A480004BFB6EB020C5FEA500C50F1000041EB1A
:100A5800045170BD0EF0004E4EEA113114EB5C04E7
:100A6800C2BFD4EB0C0541EA045170BD41F48011BA
:100A78004FF0000E013C90E645EA060E8DE60CEAC2
:100A8800135594EA0C0F08BF95EA0C0F3FF43BAFDF
:100A980094EA0C0F0AD150EA01347FF434AF95EA96
:100AA8000C0F7FF425AF104619462CE795EA0C0F7A
:100AB80006D152EA03353FF4FDAE1046194622E747
:100AC80050EA410618BF52EA43067FF4C5AE50EA21
:100AD80041047FF40DAF52EA43057FF4EBAE12E711
:100AE8004FF0FF3C06E000BF4FF0010C02E000BFF2
:100AF8004FF0010C4DF804CD4FEA410C7FEA6C5CD5
:100B08004FEA430C18BF7FEA6C5C1BD001B050EA77
:100B1800410C0CBF52EA430C91EA030F02BF90EA62
:100B2800020F0020704710F1000F91EA030F58BF21
:100B3800994208BF90422CBFD8176FEAE37040F083
:100B4800010070474FEA410C7FEA6C5C02D150EA21
:100B5800013C07D14FEA430C7FEA6C5CD6D152EADC
:100B6800033CD3D05DF8040B704700BF84461046A1
:100B780062468C461946634600E000BF01B5FFF7A0
:100B8800B7FF002848BF10F1000F01BD4DF808ED70
:100B9800FFF7F4FF0CBF012000205DF808FB00BF41
:100BA8004DF808EDFFF7EAFF34BF012000205DF89B
:100BB80008FB00BF4DF808EDFFF7E0FF94BF0120E8
:100BC80000205DF808FB00BF4DF808EDFFF7CEFFE9
:100BD80094BF012000205DF808FB00BF4DF808ED28
:100BE800FFF7C4FF34BF012000205DF808FB00BFF9
:100BF8004FEA410212F5001215D211D56FF478733D
:100C0800B3EB625212D94FEAC12343F0004343EADF
:100C1800505311F0004F23FA02F018BF40427047BA
:100C28004FF00000704750EA013005D111F0004044
:100C380008BF6FF0004070474FF00000704700BFDA
:100C48004A0011D212F5001211D20DD56FF4787343
:100C5800B3EB62520ED44FEAC12343F0004343EA98
:100C6800505323FA02F070474FF00000704750EAE3
:100C7800013002D14FF0FF3070474FF0000070474D
:100C880053B94AB9002908BF00281CBF4FF0FF31EB
:100C98004FF0FF3000F092B9ADF1080C6DE904CEC9
:100CA80000F024F8DDF804E0DDE9022304B0704721
:100CB800D0B50C4B002206460F46FFF7FFFCFFF7A6
:100CC800BFFF0446FFF780FC074B0022FFF7F6FC46
:100CD80002460B4630463946FFF738FBFFF7B0FFB0
:100CE8002146D0BD0000F03D0000F0412DE9F0475D
:100CF800089E0D4604468846002B4DD18A429446EC
:100D080068D9B2FA82F252B101FA02F3C2F12001B3
:100D180020FA01F10CFA02FC41EA030894404FEA78
:100D28001C45210CB8FBF5FE1FFA8CF705FB1E834A
:100D380041EA03430EFB07F199420BD91CEB03036D
:100D48000EF1FF3080F01E81994240F21B81AEF116
:100D5800020E63445B1AA4B2B3FBF5F005FB103333
:100D680044EA034400FB07F7A7420AD91CEB040432
:100D780000F1FF3380F00881A74240F20581644406
:100D88000238E41B40EA0E4000211EB1D440002383
:100D9800C6E90043BDE8F0878B4208D9002E00F071
:100DA800EE800021C6E900050846BDE8F087B3FAE1
:100DB80083F100294AD1AB4202D3824200F2F98082
:100DC800841A65EB030301209846002EE2D0C6E999
:100DD8000048DFE702B9FFDEB2FA82F2002A40F0EB
:100DE8009180A1EB0C054FEA1C471FFA8CFE0121EC
:100DF800B5FBF7F307FB1350250C45EA00450EFB3E
:100E080003F0A84208D91CEB050503F1FF3802D20C
:100E1800A84200F2CB8043462D1AA4B2B5FBF7F0E6
:100E280007FB105544EA05440EFB00FEA64508D909
:100E38001CEB040400F1FF3502D2A64500F2BB808A
:100E48002846A4EB0E0440EA03409EE7C1F12007C0
:100E58008B4022FA07FC4CEA030C20FA07F405FA47
:100E680001F31C43FD404FEA1C4900FA01F3B5FBAE
:100E7800F9F8200C1FFA8CFE09FB185540EA0545C5
:100E880008FB0EF0A84202FA01F20BD91CEB05058B
:100E980008F1FF3A80F08880A84240F28580A8F1E6
:100EA800020865442D1AA4B2B5FBF9F009FB1055E8
:100EB80044EA054500FB0EFEAE4508D91CEB0505C6
:100EC80000F1FF346CD2AE456AD90238654440EA75
:100ED8000840A0FB0294A5EB0E05A542C846A6460D
:100EE80056D353D05EB1B3EB080265EB0E0505FA95
:100EF80007F722FA01F3CD401F43C6E90075002128
:100F0800BDE8F087C2F1200320FA03F10CFA02FCD5
:100F180025FA03F395400D434FEA1C471FFA8CFE50
:100F2800B3FBF7F107FB11302B0C43EA004301FB3D
:100F38000EF0984204FA02F408D91CEB030301F1FD
:100F4800FF382FD298422DD9023963441B1AADB20B
:100F5800B3FBF7F007FB103345EA034500FB0EF33C
:100F6800AB4208D91CEB050500F1FF3816D2AB429D
:100F780014D902386544ED1A40EA014138E7314690
:100F8800304607E78646E5E61846FAE64B45A9D215
:100F9800B9EB020864EB0C0E0138A3E74046EAE718
:100FA800204694E74146D1E7D0467BE7023B6544BB
:100FB80032E7084609E76444023842E7704700BF51
:100FC800002301461A46184600F026B938B5084BE2
:100FD800084D5B1B9C1007D0043B1D44013C55F891
:100FE80004399847002CF9D1BDE8384008F074BDA1
:100FF800809F00087C9F000870B50D4E0D4D761B34
:10100800B61006D0002455F8043B01349847A64290
:10101800F9D1094E094D761B08F058FDB61006D0D7
:10102800002455F8043B01349847A642F9D170BD15
:10103800749F0008749F00087C9F0008749F000834
:10104800844641EA000313F003036DD1403A41D3CB
:1010580051F8043B40F8043B51F8043B40F8043B8A
:1010680051F8043B40F8043B51F8043B40F8043B7A
:1010780051F8043B40F8043B51F8043B40F8043B6A
:1010880051F8043B40F8043B51F8043B40F8043B5A
:1010980051F8043B40F8043B51F8043B40F8043B4A
:1010A80051F8043B40F8043B51F8043B40F8043B3A
:1010B80051F8043B40F8043B51F8043B40F8043B2A
:1010C80051F8043B40F8043B51F8043B40F8043B1A
:1010D800403ABDD2303211D351F8043B40F8043BBA
:1010E80051F8043B40F8043B51F8043B40F8043BFA
:1010F80051F8043B40F8043B103AEDD20C3205D3CA
:1011080051F8043B40F8043B043AF9D2043208D0C1
:10111800D2071CBF11F8013B00F8013B01D30B8833
:1011280003806046704700BF082A13D38B078DD011
:1011380010F003038AD0C3F10403D21ADB071CBFE3
:1011480011F8013B00F8013B80D331F8023B20F84D
:10115800023B7BE7043AD9D3013A11F8013B00F886
:10116800013BF9D20B7803704B7843708B7883700E
:1011780060467047830730B548D0541E002A3FD0D8
:10118800CAB2034601E0013C3AD303F8012B9D079C
:10119800F9D1032C2DD9CDB245EA05250F2C45EA06
:1011A800054536D9A4F1100222F00F0C03F1200EE8
:1011B800E6444FEA121C03F1100242E9045542E9E1
:1011C800025510327245F8D10CF1010214F00C0FDF
:1011D80003EB021204F00F0C13D0ACF1040323F05C
:1011E80003030433134442F8045B9342FBD10CF02D
:1011F80003042CB1CAB21C4403F8012B9C42FBD156
:1012080030BD64461346002CF4D1F9E70346144672
:10121800BFE71A46A446E0E770B4184C2568D5F82D
:1012280048411CB365681F2D25DC38B9AB1C013556
:10123800656044F82310002070BC704704EB850CEF
:101248000228CCF88820D4F888614FF0010202FA0D
:1012580005F246EA0206C4F88861CCF80831E5D1FF
:10126800D4F88C311343C4F88C31DFE705F5A67444
:10127800C5F84841D6E74FF0FF30DDE78C9D000800
:10128800C1F30A52F8B5A2F2FF35132D0B46844676
:101298000C46064632DC002D1EDB354F2F4101EA95
:1012A8000702024315D030A3D3E90023FFF750F813
:1012B80000220023FFF792FC48B1002C04DD4FF414
:1012C800801343FA05F52C4424EA07040026234634
:1012D800B44660461946F8BD23A3D3E90023FFF7B7
:1012E80037F800220023FFF779FC0028EFD0002C04
:1012F80034DB26432ED01F4C0026E8E7332D08DDCB
:10130800B5F5806FE5D10246FFF722F884460B4613
:10131800DFE7A2F213424FF0FF37D7400742D8D099
:1013280011A3D3E90023FFF713F800220023FFF7E6
:1013380055FC0028CBD0002C09DD142D0CD001233E
:10134800C5F1340503FA05F5AE1928BFE41826EAF5
:101358000706BCE73446BAE70134F8E700264FF041
:101368000044B4E7AFF300809C7500883CE4377E06
:10137800FFFF0F000000F03FC1F30A52F8B5A2F2D8
:10138800FF35132D0B4684460C46064630DC002DEF
:101398001EDB354F2F4101EA0702024315D030A367
:1013A800D3E90023FEF7D4FF00220023FFF716FC41
:1013B80048B1002C04DA4FF4801343FA05F52C44A5
:1013C80024EA070400262346B44660461946F8BDB9
:1013D80023A3D3E90023FEF7BBFF00220023FFF776
:1013E800FDFB0028EFD0002C24DB00263446EAE77A
:1013F800332D08DDB5F5806FE7D10246FEF7A8FF6B
:1014080084460B46E1E7A2F213424FF0FF37D7407C
:101418000742DAD012A3D3E90023FEF799FF00228E
:101428000023FFF7DBFB0028CDD0002C0BDB26EADE
:101438000706C8E724F000430C4A1E43002E18BFD5
:1014480014460026BFE7142D08D00123C5F1340542
:1014580003FA05F5AE1928BFE418E8E70134E6E712
:101468009C7500883CE4377EFFFF0F000000F0BF4A
:10147800F0B5C1F30A55A5F2FF3CBCF1130F83B0D8
:1014880002460B460C4686464FEAD17665DCBCF12F
:10149800000F30DB424941FA0CF103EA0100104326
:1014A80061D003EA510352EA030E4FEA51010DD00D
:1014B80024EA01014FF48024BCF1130F44FA0CF420
:1014C8000CBF4FF0004E4FF0000E0C43354901EBB6
:1014D800C6062346D6E90045724620462946FEF749
:1014E80037FFCDE90001DDE9000122462B46FEF772
:1014F8002DFF03B0F0BD21F0004101431946F8D09B
:10150800C3F3130343EA000E264ACEF1000343EA6D
:101518000E0302EBC606D6E90067620C1B0B03F448
:101528000023520443EA02010B460246394630467C
:10153800FEF70EFFCDE9000132463B46DDE900012A
:10154800FEF704FF04F0004421F00041024641EA9E
:1015580004031046194603B0F0BDBCF1330F06DD95
:10156800BCF5806F18D01046194603B0F0BDA5F23F
:1015780013454FF0FF31E9400842F4D010EA510218
:101588004FEA5103A2D04FF0804E20EA03034EFAEF
:1015980005F543EA050E99E7FEF7DAFEA9E700BF6D
:1015A800FFFF0F00909D000838B5C1F30A55A5F25A
:1015B800FF32132A0B4684468E4604461EDC002A58
:1015C8000EDB1D49114103EA0100204313D04FF4FB
:1015D800002343FA02F296442EEA010E002408E0A2
:1015E80001F0004E013204BF4EF07F5E4EF4401E03
:1015F80000247346A4466046194638BD332A08DDE0
:10160800B2F5806FF7D10246FEF7A2FE84460B467C
:10161800F1E7A5F213454FF0FF3121FA05F528420D
:10162800E9D00123C2F1330203FA02F2841828BF79
:101638009E4424EA0504DCE7FFFF0F00014B01226A
:101648001A70704700000020064B1888FD23A0F58B
:101658004860584340F2262390FBF3F00130C0B2B3
:10166800704700BFB406002030B5057887B03DB993
:1016780043781B4C4BB91B4801F08AFB02232370AB
:10168800194B01221A7007B030BD6388022B17D896
:1016980001331648638001F07BFB154B0293083336
:1016A800221D049301A803238DF814308DF80450EB
:1016B800039206F0A7FD00280CBF04230323DEE7EE
:1016C8000C4801F065FB2046042300F80C3B0A494E
:1016D80002F00CFD04F10C0002F068FCD0E700BF3A
:1016E800BC040020A09D000800000020A99D00085F
:1016F80001000020B79D000840771B0010B5044C7E
:1017080004F10C0002F0C2FC0023237010BD00BFDE
:10171800BC04002008B5074802F0B8FC00F01CFA29
:10172800044842F2107102F0E1FCBDE808400148AB
:1017380002F03CBCDC04002010B5124C86B0607E80
:1017480001A906F059FA78B100238DF808300493FE
:10175800ADF814308DF8163002A806F061FE003896
:1017680018BF012006B010BD02238DF80C30064BBF
:101778000493637E8DF80800ADF814308DF81600D8
:10178800EAE700BF00000020F004002030B5134C49
:1017980089B004F1440002F079FC012568468DF80F
:1017A800005006F08FFA30B99DF804302BB10223AF
:1017B80023700B4B1D7009B030BD8DF80C30094BF0
:1017C8000493221D083303A80693059206F01AFD18
:1017D80000280CBF042303232370ECE7BC0400207B
:1017E80000000020010000200378042B01D1FFF73E
:1017F800CDBF704770B5437804465BBB037990F959
:101808001020B0F90E10144801F0C2FA6379012BC8
:1018180001D1FFF7BBFF637BE3B11048104E01F025
:10182800B7FA0025227BA36895420DDB1B780D4A89
:101838000D48DB0040F2A461BDE870408B42D4BF84
:101848001360116001F0A4BA595D304601F0A0FAA6
:101858000135E7E770BD00BFE69D0008199E000846
:10186800349E0008AC0600204F9F0008134B04224A
:101878005A76134B134A1B68002B1946B8BF03F15D
:10188800FF01091282F834105942C9B2DBB258BFBD
:101898004B4282F835300C4B1B68002B1946B8BFF9
:1018A80003F1FF01091282F836105942C9B2DBB2BE
:1018B80058BF4B4282F83730704700BF0000002005
:1018C800B4060020BC040020B00600202DE9F04337
:1018D8006B4F6C4CDFF8F091DFF8F08199B0002580
:1018E8003D7000F039F9684801F052FA237A049300
:1018F800E3790393A379029363790193237900939E
:10190800A278E3786178614801F042FA40F2A15682
:101918003B78042B00F2B280DFE803F0065C70A08D
:10192800AA0003233B70F3E7594B0F93594B1093CD
:10193800594B1193594B12930022594B079307A9FE
:101948000FA805F0CFFF5749574802F027FB574922
:10195800574802F023FB5749574802F01FFB42F251
:101968001071534802F0C2FB514802F01FFB0126D8
:10197800022309A88DF824308DF8286006F098FA1B
:10198800072309A88DF824308DF8286006F090FA0E
:10199800FF23ADF84C300023ADF84E30ADF8503091
:1019A800ADF85230ADF85430ADF856300D238DF8FF
:1019B80030300CA813AB0D9306F07AFA0C2213AB57
:1019C8000CA88DF830200D9306F072FA3E7040F2A4
:1019D800A1569DE700238DF84C30384B14930833FB
:1019E800374A169313A803238DF85C30159206F036
:1019F80009FC00280CBF0423032393E7D8F8003020
:101A08000136552BB6B206DD2378ABB1FFF72EFFB2
:101A1800FFF792FE2070D8F80030462B0CDCB6F5A4
:101A2800B46F09D926780135EDB22EB1FFF71EFF44
:101A3800FFF782FE002620704FF47A71002004F030
:101A480059F900F59C4020300A2DE0617FF669AF16
:101A580000251C483D7001F09BF959E70423E16912
:101A680011483B7002F042FB0F4802F09FFA4FE723
:101A780002F070FBD9F86030984749E7002351E736
:101A8800BC04002000000020389E0008519E000879
:101A980045160008FD17000871160008F117000820
:101AA8005116000895170008000500201D170008AA
:101AB800DC04002005170008C804002001000020ED
:101AC800C00400207B9E00086C9C0008B006002023
:101AD80000B589B006A802F05BF9164801F058F97C
:101AE8009DF81F3004939DF81E3003939DF81D3018
:101AF80002939DF81C3001939DF81B309DF8192026
:101B08009DF8181000930C489DF81A3001F040F920
:101B18000A490B4801F03CF90A4A0B490B4801F005
:101B280037F90B4801F034F90A4801F031F909B0E6
:101B38005DF804FB859E0008AF9E0008E19E000842
:101B4800EF9E0008059F00080E9F00081A9F0008D6
:101B58004F9F0008879E00082DE9F0415C485D4CC6
:101B680000220F2101F098FB002211465A4801F08B
:101B780093FB57480722082101F0FCFA07220B21A2
:101B8800534801F0F7FA01F065F9142001F098F9CB
:101B9800012001F011FA0121002001F0ADF9022124
:101BA800012001F0A9F90221084601F0A5F9002059
:101BB80001F096F9494A0020111D01F0C5F90120EC
:101BC80001F06AF9012001F051F904F1C8052F4626
:101BD800A0460026012001F0A5F90028FAD001F05E
:101BE800ABF927F8020B012001F09CF90028FAD084
:101BF80001F0A2F928F8020B012001F093F900285E
:101C0800FAD001F099F90136012001F02FF9642E7C
:101C1800E0D1002001F02AF9002001F03DF900236D
:101C28001A46194635F8020B0131024434F8020B02
:101C380064290344F6D1294CB2FBF1F207EE902A4D
:101C4800B3FBF1F3F8EEE77A94ED007ADFED246A5E
:101C5800D4F89821234897EEA67A9B1A002BD4ED46
:101C6800017AC4F89C31C7EE276ABCBF0023C4F8C8
:101C78009C31D4F89C219FED1C7ADFED1C7AE6EEAE
:101C8800877A9FED1B7A67EE877AFDEEE77A17EE83
:101C9800901AC4ED687A01F07BF894F9A421012A1E
:101CA80009D1D4F89C310A48B3F5967FD8BF0022F1
:101CB800022101F0F1FA064801220F2101F0ECFAA5
:101CC800BDE8F04104480122002101F0E5BA00BF57
:101CD80000F001401C05002000F40140140500201C
:101CE8009A9999392F9F00087D3FBD407E8C393ED7
:101CF80000007A441FB5012211460A4C0A4801F037
:101D080025FB01A802F057F84FF4165301A9204605
:101D1800019302F065F80121204602F057F804B05B
:101D280010BD00BF0030004000F4014010B5012193
:101D3800022001F077FE0121112001F019FC60203A
:101D480001F0E4FB0121122001F012FC01211F2007
:101D580001F00EFC01210D2001F00AFC01212020D8
:101D680001F006FC0121212001F002FC01212220C2
:101D780001F0FEFB0121412001F0FAFB01210320C3
:101D880001F0F6FB0121002001F0F2FB01210E20F9
:101D980001F0EEFB002211462848294C01F0D6FA42
:101DA80028480022022101F0D1FA264804220F21F6
:101DB80001F0E0F921480322002101F0DBF90322B8
:101DC8000221204801F0D6F9642001F041F90120F0
:101DD80001F042FBFFF78EFF03F0A6FC4FF4FA7008
:101DE80001F036F917480422022101F0C3F9164B15
:101DF8001B789BB1FFF7B0FE144A134800231370F9
:101E0800D4F89C31002BB8BF0733DB10537001F0B6
:101E180025F90E490C48022201F052F90A4B5B7869
:101E280040F2A462DB009342D4BFC4F89831C4F8EE
:101E38009821012384F8A43110BD00BF00F40140AB
:101E48001405002000F0014000D000082000002008
:101E580008B5FFF76BFFFFF73BFEFFF737FD0020E4
:101E680008BD7047FEE7FEE7FEE7FEE770477047EC
:101E78007047704703F03CB803F072BD70472DE916
:101E8800F84F99460D9B15469A07DDE90B4706461C
:101E98008B4622D02A460A9901EB04081444A24230
:101EA8001FD10D9B9B0705D5A2EB0508474505EB00
:101EB80008041FD82046BDE8F88F4B465946202015
:101EC800B04708F10108B8450AEB0802F5D33A1BF8
:101ED800BC4288BF00222A44DDE7A046A5EB040ADD
:101EE800F1E702F1010A18F8010D4B465946B047CF
:101EF8005246D4E74B46224659462020B04708F1BF
:101F08000108D3E72DE9F047DDE90D7616F0020F59
:101F1800DDE90854DDE90BC89DF828E01FD106F07B
:101F280001094FB1B9F1000F06D0BEF1000F02D17F
:101F380016F00C0F00D0013F4FF0300A04E0202CBF
:101F480004D005F804A00134A045F8D84FF0300AB1
:101F5800B9F1000F03D0BC4201D21F2C34D916F0BE
:101F6800100F1FD016F4806F33D194B3444501D0BD
:101F7800BC422ED1B4F101082AD0BCF1100F33D1E4
:101F8800023C16F0200F31D11F2C15D84FF0780CD9
:101F980005F804C001341F2C0ED84FF0300C05F89A
:101FA80004C001341F2C07D8BEF1000F23D04FF016
:101FB8002D0C05F804C00134CDE90A76CDE90854A2
:101FC800BDE8F047FFF75BBF05F804A00134BFE7A1
:101FD8004446BCF1100FD4D0BCF1020FDBD11F2C4A
:101FE800EAD84FF0620CD3E74446F5E71F2CE3D854
:101FF8004FF0580CCCE716F0040F02D04FF02B0C22
:10200800D7E716F0080FD7D04FF0200CD1E72DE90D
:10201800F04391B0189D1A9E1D9F0DB927F0100727
:102028007C0500D515B317F0200F14BF4FF0410EF3
:102038004FF0610EAC460DF120080025AEF10A0EF6
:10204800BCFBF6F906FB19C95FFA89F4B9F1090F67
:1020580094BF30347444E4B2B44508F8014BBCFB77
:10206800F6F405F1010501D3202D10D11C9C05942F
:102078001B9C0697CDE903649DF86440CDE90154A3
:1020880008AC0094FFF73EFF11B0BDE8F083A4460A
:10209800D6E72DE9F04F2DED048B93B0DDE92065EF
:1020A800289F9A4656EA050308BF27F0100709EE4D
:1020B800102A7A05DDE924B908EE100A08EE901A0C
:1020C80002D556EA05033DD017F0200F14BF41236F
:1020D80061230A3B0DF12808002409935A464B4610
:1020E80030462946FEF7CCFDD2B2092A8ABF099BA1
:1020F8003032D2185E45D2B275EB090308F8012BCD
:1021080004F1010401D3202C19D1279B0593269BA8
:102118000697CDE903B39DF88830CDE901430AABB2
:10212800009319EE102A18EE901A18EE100A53466A
:10213800FFF7E8FE13B0BDEC048BBDE8F08F064650
:102148000D46CBE70024E0E72DE9F04F2DED088B95
:102158008DB01D46DDE920B39DED1E7B0A93229BC1
:10216800079208EE900AB0EE479AF0EE679A0C468E
:10217800069351EC170B53EC172BFEF707FD80B1B4
:10218800CB4B51EC190B4FF0FF32FEF727FD40B94E
:1021980051EC190B4FF0FF326FF48013FEF700FD7E
:1021A80090B1069B22930A9B079A18EE900ACDE9F4
:1021B80020B321462B468DED1E9B0DB0BDEC088B40
:1021C800BDE8F04F00F08CB951EC190B0022002348
:1021D800FEF7E6FC002800F03F8119EE903A19EE70
:1021E800108A03F10049069B9FEDB27A9FEDB28AEF
:1021F80013F480630B93C9F30A53A3F2FF3307EE7A
:10220800903AC9F31302F8EEE77A42F07F51AB4BEC
:102218004FF00002404641F4401108BF4FF0060B52
:10222800A7EE878AFEF792F89BA3D3E90023FEF76F
:1022380045FA064618EE100A0F46FEF7E7F9024679
:102248000B4630463946FEF783F8FEF7D1FC07EE19
:10225800900AB8EEE77ADFED9A7AB6EE008AA7EE32
:10226800278A8246DFED977ABDEEC88AF8EEC86AFB
:1022780067EEE67ADFED946AE7EE267A17EE900AC3
:10228800FEF7C4F902460B4606460F46FEF716FA55
:10229800324641EC1A0B3B4630463946FEF758F8B1
:1022A8008A4B41EC1B0B002251EC1A0BFEF730FB5A
:1022B800874B0022FEF74CF802460B4651EC1A0BEE
:1022C800FEF726FB834B0022FEF742F802460B4638
:1022D80051EC1A0BFEF71CFB324641EC1A0B3B463D
:1022E80000204FF08041FEF731F802460B4651ECD2
:1022F8001A0BFEF72DF802460B4651EC1B0BFEF7A6
:1023080007FB754B0022FEF723F818EE103A03F28C
:10231800FF3633050022FEF7D1F942464B46064602
:102328000F46FEF75BFC002840F09980CDE908676E
:102338000AF16303C72B069B34BF0426052619053B
:1023480023D557A3D3E9002340464946FEF73CFC72
:10235800002800F08F8054A3D3E900234046494663
:10236800FEF71EFC002800F08580069BD345C8BFF9
:10237800ABEB0A0B43F480634FF00006CCBF0BF1C4
:10238800FF3B4FF0000B0693B2460A9B9E4238BFB4
:102398009F1B069B28BF002713F002030B9302D054
:1023A800002E18BF0027BAF1000F07D04046494653
:1023B800DDE90823FEF7ACFA8046894651EC190B93
:1023C80000220023FEF7ECFB10B109F10043994607
:1023D800069B079ACDF808B023F40063CDE9037390
:1023E800CDE9008918EE900A2B46214600F078F8CE
:1023F8006EB3069B13F0200F00F1010802462B462E
:1024080014BF45206520214618EE907AB847052369
:10241800059300220A238AEAEA70CDE90232A0EB8A
:10242800EA704FEADA73013E019300902B4618EEEA
:10243800900A049642462146FFF7E9FD0B9B33B10B
:10244800079BC61A079B98190A9BB3421BD80DB065
:10245800BDEC088BBDE8F08F59EC198BC3E61C4B1B
:10246800002230463946FEF753FA0AF1FF3ACDE921
:1024780008015DE7BBF1000F87D00B9B002B84D0D0
:102488000BF1FF3B81E7024618EE907A2B46214676
:102498002020B8470136D5E700000060A787D23F63
:1024A800000000E0E2361A3F0000000080842E4160
:1024B800FFFFEF7F9B209A3E4451343E0000F83FD7
:1024C800789A54401872313F8E5D134000002C40BA
:1024D80000002440000018400000F03F0000000009
:1024E8002DE9F04F2DED088B8FB0DDE920AB09EE1B
:1024F800103ADDE9225308EE100A08EE902A0F463A
:10250800049352465B4650465946249EFEF73EFBCE
:10251800A0B9049B229303232193B94B23962093BC
:1025280018EE902A19EE103A18EE100A39460FB034
:10253800BDEC088BBDE8F04FFFF7A1BC4FF0FF32B0
:102548006FF4801350465946FEF72AFB30B1049BBE
:102558002293042321932396AA4BE0E7AA4B4FF03A
:10256800FF3250465946FEF739FB70B1A74A049925
:10257800239606F00403002B08BF0322A44B1CBFBC
:1025880013460422CDE92121C9E799A3D3E9002301
:1025980050465946FEF722FB38B997A3D3E90023E2
:1025A80050465946FEF7FCFA98B1049B2496CDE9AB
:1025B800225318EE902A19EE103A18EE100A3946EE
:1025C800CDE920AB0FB0BDEC088BBDE8F04FFFF7AD
:1025D800BBBD0022002350465946FEF7E1FA002809
:1025E80000F081805B46524600200021FDF7AEFED8
:1025F800012382468B46059316F4806F08BF062593
:1026080006ABA5F12002A9463021B9F1090FA5EBC7
:10261800090406D909F1FF394A4503F8011BF4D129
:10262800202459465046FEF7E3FA7A4B03EBC903D8
:1026380093ED007B0546B0EE47AAF0EE67AAFDF7DA
:10264800D3FF02460B4650465946FDF77FFE53EC32
:102658001A2BFEF733F802460B4643EC1B2BFEF70A
:10266800EFFA8046FDF7B0FF02460B4651EC1B0B14
:10267800FDF76CFE02460B4643EC1B2B664B002213
:10268800FEF7ACFA88B308F101084046FDF79CFF55
:1026980002460B4651EC1A0BFEF78CFA10B10135C5
:1026A8004FF00008B9F1000F50D12846FDF79CFF04
:1026B80002460B4650465946FDF748FE564B002247
:1026C80080468946FEF76CFA30B1534B00224046EB
:1026D8004946FEF783FA10B1E80700D5013506AB85
:1026E80023440A2259E0059086E74B4B51EC1B0B1B
:1026F8000022FEF755FA0028D4D1B8F1000F02D015
:1027080018F0010FCED008F10108CBE7B8FBF1F0C3
:1027180001FB10823032B8F1090F03F8012B09F1DF
:10272800FF3904F1010428D8A14406AA3021202C3D
:1027380011D04C4504F1010321D104F138020DEB0D
:1027480002042E2204F8202C1C46C8E706AB2344BA
:102758000A21202CDAD106F00303012B06AB39D16C
:10276800049A002A36D0059A12B916F00C0F02D036
:10277800049A013A0492302214E08046E9E7A15411
:102788001C46D4E795FBF2F102FB1155303503F8EE
:10279800015B01340D460029DDD0202CF2D1DAE7A7
:1027A8001A5501340499A14214D9202CF8D1049A5D
:1027B8000093CDE9014219EE103A18EE902A18EE6E
:1027C800100A03963946FFF75AFB0FB0BDEC088B89
:1027D800BDE8F08F202CEAD0059AFAB104F138024E
:1027E8006A442D2102F8201C0134E0E7AFF3008091
:1027F8000000000065CDCD410000000065CDCDC1D1
:102808005B9F00085F9F0008FFFFEF7F569F00084F
:10281800529F0008F09A00080000E03F710704D5B5
:1028280004F138026A442B21DCE73207BFD504F1F2
:1028380038026A442021D5E7014610B1014801F069
:10284800B5BA7047003000402DE9F04F91B09B4673
:10285800B74B1A9E0029904614BF81469946002519
:102868009BF8000058B945452CBF08F1FF322A46AD
:1028780043460020C847284611B0BDE8F08F2528F8
:102888000BF1010B06D02A466C1C43460A91C84737
:102898002546B2E1002306E02D2A14D0302A0CD1B7
:1028A80043F001038346584610F8012B2B2A0DD01C
:1028B800F2D8202A0DD0232A0ED0A2F13004092CF8
:1028C80029D8002710E043F00203EBE743F00403A4
:1028D800E8E743F00803E5E743F01003E2E70A24DA
:1028E80004FB0727303F8346584610F8012BA2F116
:1028F8003004092CF3D99BF800202E2A67D19BF8C5
:102908000100A0F13004092C0BF1010243F48063AB
:1029180053D8002411E02A2A08D156F8047B002F46
:10292800BCBF43F002037F428346E4E70027E2E7A7
:102938000A2202FB0404303C624694461CF8010B50
:10294800A0F1300EBEF1090FF2D993465A4612F89B
:10295800010B6C2844D03CD868284AD06A2852D049
:102968005A4693461BF8010B78288CD857284DD81F
:10297800452805D087D9462800F02C81472882D1E0
:1029880000F0DF02472A04BF00F0FD0043F40063B3
:10299800452808BF43F02003CDE90373073626F026
:1029A80007060294F6E802234846CDE90023434689
:1029B8002A460A91FFF7C8FB1EE12A2806D156F8D5
:1029C800044B0BF1020B24EAE474BFE7934600249E
:1029D800BCE7742801D07A28C2D143F48073C0E7D9
:1029E8009BF801006C28F8D143F440730BF1020204
:1029F800B7E79BF80100682802D043F08003B0E7EE
:102A080043F0C003F2E743F40073AAE7A0F15802C9
:102A1800202A3FF638AF0FF2080C5CF822F000BF0E
:102A2800AD2A00088F2800088F2800088F28000882
:102A38008F2800088F2800088F2800088F28000892
:102A48008F2800088F280008AD2A0008072C0008E6
:102A5800AD2A000889290008E12B00088929000807
:102A68008F280008AD2A00088F2800088F28000842
:102A78008F2800088F2800088F280008AD2A000832
:102A88005D2D00088F2800088F280008872C000873
:102A98008F280008AD2A00088F2800088F28000812
:102AA800AD2A0008782800F06B81582800F066816C
:102AB8006F2800F06781622800F06681692823F09A
:102AC80010034FF00A0203D0642801D023F00C034E
:102AD80013F4806F18BF23F00103692803F4007C06
:102AE80001D0642841D1BCF1000F23D0073626F06D
:102AF8000706B24676685AF8080B0694CDE90773BC
:102B080000230593F30F002E02930492034602DA82
:102B1800434266EB4606CDE9003643462A46484618
:102B28000A91FFF7B6FA0A990546564698E600BF95
:102B3800851E0008D80506F1040A0CD53068CDE9D1
:102B48000224CDE9047300284FEAD0730193B8BF7B
:102B58004042009027E013F0400F306801D0C0B227
:102B6800EDE71E0648BF00B2E9E7BCF1000F0ED042
:102B7800CDE907730023CDE90423073626F0070AB9
:102B880006940293FAE80223CDE90023C5E7D805A5
:102B980006F1040A0ED5CDE90473CDE90224CDF877
:102BA80004C03368009343462A4648460A91FFF713
:102BB8002EFAB8E713F0400F306807D0C0B2CDE95D
:102BC80004730023CDE902240193C2E71E0648BF1F
:102BD80080B2F4E743F02003CDE90373073626F00B
:102BE80007060294F6E802234846CDE90023434647
:102BF8002A460A91FFF774FC05460A9930E613F055
:102C0800020426D04FF0010A56F8040B0B916B1CF6
:102C18000A932A464346C0B2C8470B996CB30A9A2E
:102C2800544620E00A9143462020C8470A990AEBF7
:102C380005020AF1010A5745F4D8002F07F1FF33BE
:102C480008BF002307F1010A1D4408BF4FF0020A1C
:102C5800DAE7A246EBE70B9143462020551CC8470C
:102C68000B9901342A46BC42F5D30A9AA7EB0A030A
:102C7800574538BF00231A440A920A9DF0E53246A8
:102C880052F8046B0A92414A002E08BF1646002CDF
:102C980014BF22464FF0FF323244B4469CF800007D
:102CA80008B1944511D113F48062ACEB060A0B927B
:102CB80002D0A24528BFA24613F002030C931DD1EF
:102CC800AAEB05032A460E930AE00CF1010CE5E78E
:102CD800531C0D930F9143462020C8470D9A0F9916
:102CE8000E9BD3189F42F3D8A7EB0A03574538BF6A
:102CF80000230AF101021D4403EB020AAB1B0D93EA
:102D080005E01C460E9143462A46C8470E990D9B7E
:102D18009D1916F8010B28B10B9B002BF2D0631EEE
:102D2800002CEED10C9B9BB12A46AAEB050406E0C9
:102D38000B9143462020561CC8470B99324613195D
:102D4800BB42F5D3A7EB0A03574538BF00231D4400
:102D58000A9E85E543F0210305930823CDE9034343
:102D680010220023CDE9013256F8043B00932A468D
:102D7800434648460A91FFF74AF93DE743F02003E6
:102D88001022A3E60822A1E602229FE6649F00081B
:102D98000FB41FB506AA02A952F8043B0392009289
:102DA80004484FF0FF32FFF74FFD05B05DF804EB24
:102DB80004B0704741280008064B0748E02283F812
:102DC8002220C0210023C2180133252B82F80013CA
:102DD800F9D1704700ED00E000E100E00F4A08B5C6
:102DE800D2F8883043F47003C2F888304FF080423C
:102DF800D36843F08003D36002F50032536923F4AB
:102E0800702343F48033536193689B07FCD5FFF725
:102E1800D3FFBDE8084000F0DFB800BF00ED00E0D8
:102E280070B501268C1906FA01F5E4B211448C42FA
:102E380008DB074A42EA8000026853402B405340AF
:102E4800036070BD06FA04F201341543E4B2EEE7FC
:102E58000080004008B51120002304220621FFF756
:102E6800DFFFBDE80840642000F0DAB8094B1A68B3
:102E780048B1D00706D51A68910703D41A6842F0FA
:102E880004021A6070475207FCD51A6842F008021B
:102E9800F7E700BF00700140084B1A6828B11AB95B
:102EA8001A6842F001021A607047D107FCD51A6807
:102EB8005207F9D41A6842F00202F4E700700140A0
:102EC800B0F5805F09D2054A536823F47F6323F085
:102ED8000F035360536818435060704700700140F7
:102EE800044B596821F4401159605A6810435860DE
:102EF800704700BF00700140072892BF074A084A80
:102F0800083810B580000F2303FA00F4136801FA9B
:102F180000F023EA04031843106010BD0870014054
:102F28000C700140034B5B6930EA03030CBF0120BE
:102F38000020704700700140024BD869C0F30B00B5
:102F4800704700BF0070014010B5174CDFED175AED
:102F5800236B9FED176A9FED177AF7EE006AA8B901
:102F6800C3F3471307EE903AF8EEE77A636BE7EEA0
:102F7800A56AC3F30813C1ED006A07EE903AF8EEAC
:102F8800E77AA7EE867A82ED007A10BDC3F347335D
:102F980007EE903AF8EEE77A636BE7EEA56AC3F3BB
:102FA8004833C1ED006AE8E7002000106F12033BC8
:102FB8006F12833A6F1283BE28B9064A936C23F0C6
:102FC8004003936470470128FCD1024A936C43F094
:102FD8004003F6E70080004008B5012000F048FAF9
:102FE8000C4B984214D90C4A0133B0FBF3F313701D
:102FF8000A4A4FF47A73B0FBF3F04FF0E02301383C
:10300800E021586182F8231000229A6107221A6190
:1030180008BD00BF3F420F00B906002000ED00E0E8
:1030280030B50A4B4FF0E0211B784D695BB18C69D4
:10303800584300238A699442FCD0234498BF5B1903
:103048009B1A834200D330BD1446F3E7B90600202B
:103058004FF47A735843FFF7E3BF0000144B154948
:103068009A68D20444BF4FF480529A60124B134AB4
:1030780099619A611A6802F4007242F022021A6099
:10308800002299619A614FF0FF320260084A916804
:10309800C90405D54FF4805393606FF067007047FB
:1030A8009A68D207FCD501229A600020704700BFB9
:1030B80000F00040BFAE9D8C0000024016151413AE
:1030C800284B2DE9F34715469A68274C0746D00444
:1030D80044BF4FF480529A60244A254BA261A361F1
:1030E800236803F4007343F0240323604FF00008BF
:1030F800A26125F0070905F007020E46C4F81880FA
:103108004D4538BF42464FF0FF3A49446846CDE93D
:1031180000AAFDF795FF134A4346301D4FF0010CF6
:10312800AB4201D3002013E04B4535BFF15800995D
:10313800E160E16034BFC1580199216143F807A0FB
:103148009168C90407D54FF4805393606FF0670006
:1031580002B0BDE8F087A168C907FCD5C4F808C06B
:103168000833DDE700F0004000000240BFAE9D8C50
:1031780016151413012310B58B40062A00F282801D
:10318800DFE802F0040F1B293849630002681A437C
:10319800026082681A438260C26822EA0303C3603D
:1031A80038E002681A43026082681A438260C26883
:1031B8001A43C260026913430BE002681A430260B3
:1031C80082681A438260C2681A43C260026922EAAE
:1031D800030303611EE0026822EA030202608268B8
:1031E80022EA03028260426822EA0302426082699C
:1031F80013430EE0026822EA03020260826822EAB0
:1032080003028260426822EA03024260826922EA7B
:103218000303836110BD1F4CA0426FEA03020BD168
:10322800072909D981691140816181680A40826052
:1032380002681A430260BDE70168114001608168B5
:103248000A40826042681A43D0E7124CA0426FEAF3
:1032580003020AD1072908D981691140816181686F
:103268001140816001680A40E4E70168114001608B
:1032780081681140816041680B43436083691A404B
:103288008261C7E702681A430260826822EA030281
:1032980081E700BF00FC014010B52B4C0123A04280
:1032A80003FA01F346D1072944D98169194219D192
:1032B8008168194216D10168194213D0016919426F
:1032C80010D072B9826922EA03028261826822EA16
:1032D80003028260026822EA030202600269134361
:1032E800036110BD18498869184219D188681842C5
:1032F80016D10868184213D10869184210D0002A5C
:10330800EFD08A6922EA03028A618A6822EA030204
:103318008A600A681A430A600A6913430B61E0E786
:1033280009491AB10A6A13430B62DAE7CA691343F7
:10333800CB61D6E71AB1026A13430362D1E7C269C7
:103348001343C361CDE700BF00FC0140072910B556
:1033580011D90E4B083998420BBF01EB4101890086
:1033680007230F238B4002FA01F1C26B22EA030301
:103378001943C16310BD836B89000F248C4023EA75
:10338800040302FA01F119438163F3E700FC0140E9
:10339800274B1B6910B59C0706D1264A536823F4AE
:1033A800700343F480135360234A136943F0040302
:1033B8001361204B1A6881B122F0200202281A609A
:1033C8000ED81A6822F003021043186000292BD087
:1033D8001A4B04225A6030BF10BD42F02002EDE7BC
:1033E800174B1A6892060AD5164C174A9C619A61BF
:1033F8001A6822F020021A6000229C619A61134A1E
:10340800136B5C045CBF43F480431363094B1A6875
:1034180042F003021A605A6803280CBF42F0807217
:1034280022F080725A60D1E740BF20BF20BFD3E7A7
:10343800002000100018004000ED00E000E100E06E
:1034480000000240BFAE9D8C16151413008000408A
:103458000121FFF79DBF0000044AD36818B143F06B
:103468008003D360704723F08003FAE700800040B0
:103478004FF0804301461A6802F4E042B2F5A04FCB
:1034880020D015D8B2F5805F1ED0B2F5005F1B487A
:1034980008BF4FF4004002291BD0032923D001297B
:1034A80005D14FF080431B68C3F30323D84070470E
:1034B800B2F5C04F0BD0114B1148B2F5E04F18BF11
:1034C8001846E8E70F48E6E74FF4FA40E3E70E4806
:1034D800E1E74FF080421368C3F30323D840136831
:1034E800C3F34213E2E74FF080421368C3F30323A8
:1034F800D8401368C3F3C233D8E700BF00366E0163
:10350800006CDC020048E80180EE36004FF0804392
:10351800DA6A910406D5DA6822F48072DA60DA6A27
:103528009204FCD44FF08042936823F06003184360
:10353800906070474FF08043986800F4C03070473F
:103548004FF08043986800F4C04070474FF08043C4
:10355800986800F4C05070474FF08043986800F4B2
:10356800C06070474FF08043586800F00200704711
:1035780041284AD8DFE810F011020702FD01E401F2
:10358800D201B901710167015D01530149013F0190
:1035980035010D010301D600EA00E000CC00490026
:1035A800C200B800AE00A30099008F0085006B0030
:1035B800610057004D004200170121012B0149000D
:1035C80049004900490049004900490049004900AB
:1035D80049004900490049002E0225021B02380211
:1035E800950149004900490049004900490049003E
:1035F800490049004900490042024C024FF080430B
:10360800DA6819B142F48012DA60704722F4801245
:10361800FAE74FF08043DA6811B142F40022F3E789
:1036280022F40022F0E74FF08043DA6811B142F447
:103638008022E9E722F48022E6E74FF08043DA6847
:1036480011B142F40032DFE722F40032DCE74FF038
:103658008043DA6879B142F48032DA604FF080430F
:103668009A6A02F03F023F2AFAD15A6931B142F010
:1036780004025A61704722F48032EEE722F0040215
:10368800F7E74FF08043DA6811B142F40042BBE734
:1036980022F40042B8E74FF08043DA6811B142F4EF
:1036A8008042B1E722F48042AEE74FF08043DA6807
:1036B80011B142F40052A7E722F40052A4E74FF0F8
:1036C80080431A6919B142F020021A61704722F04A
:1036D8002002FAE74FF08043DA6811B142F48052D1
:1036E80092E722F480528FE74FF08043DA6811B1F5
:1036F80042F4006288E722F4006285E74FF08043D5
:10370800DA6811B142F480627EE722F480627BE7D6
:103718004FF08043DA6811B142F4807274E722F402
:10372800807271E74FF08043DA6811B142F02002ED
:103738006AE722F0200267E74FF08043DA6811B1A8
:1037480042F0800260E722F080025DE74FF080439C
:10375800DA6871B142F04002DA604FF080439A6A49
:1037680002F03F023F2AFAD15A6929B142F0080211
:103778007FE722F04002EFE722F0080279E74FF0F6
:103788008043DA6811B142F010023DE722F01002DE
:103798003AE74FF08043DA6811B142F0007233E73C
:1037A80022F0007230E74FF08043DA6811B142F03E
:1037B800807229E722F0807226E74FF08043DA68AA
:1037C80011B142F400021FE722F400021CE74FF097
:1037D8008043DA6811B142F4800215E722F48002CE
:1037E80012E74FF08043DA6811B142F008020BE7A4
:1037F80022F0080208E74FF08043DA6811B142F07E
:10380800040201E722F00402FEE64FF08043DA6882
:1038180011B142F00202F7E622F00202F4E64FF09C
:103828008043DA6811B142F00102EDE622F00102AC
:10383800EAE64FF08043DA6811B142F00062E3E64D
:1038480022F00062E0E64FF08043DA6811B142F0FE
:103858008062D9E622F08062D6E64FF080431A698A
:1038680079B142F400721A619A6A02F03F023F2A63
:10387800FAD15A6942F010025A611A6942F01002EC
:1038880023E722F010021A619A6A02F03F023F2AE7
:10389800FAD15A6922F010025A611A6922F40072A8
:1038A80013E74FF080431A6979B142F480521A61E4
:1038B8009A6A02F03F023F2AFAD15A6942F020027E
:1038C8005A611A6942F40062FFE622F400621A6142
:1038D8009A6A02F03F023F2AFAD15A6922F020027E
:1038E8005A611A6922F48052EFE64FF080431A6950
:1038F80071B142F008021A614FF080439A6A02F0EF
:103908003F023F2AFAD15A6929B142F00102B0E6D2
:1039180022F00802EFE722F00102AAE64FF0804306
:103928001A6931B142F004021A611A6942F0400280
:10393800CBE622F004021A611A6922F04002C4E6BA
:103948004FF080431A6971B142F002021A614FF0D8
:1039580080439A6A02F03F023F2AFAD15A6929B194
:1039680042F0020285E622F00202EFE722F00202AC
:103978007FE64FF08043DA6811B142F0805243E6A7
:1039880022F0805240E64FF080431A6911B142F0AC
:1039980001029AE622F0010297E64FF080431A6985
:1039A80011B142F0800290E622F080028DE64FF0DD
:1039B80080431A6911B142F4807286E622F480725B
:1039C80083E64FF08043DA6809B11A431CE622F017
:1039D800804219E64FF08043DA6811B142F0005294
:1039E80012E622F000520FE64FF080431A6911B137
:1039F80042F4806269E622F4806266E64FF0804312
:103A0800DA6811B142F40012FEE522F40012FBE577
:103A18004FF08043DA6811B142F00042F4E522F039
:103A28000042F1E510B50C4605280ED8DFE800F095
:103A380003151F28345F374A3749936934B123F097
:103A4800200393618B685B07FCD510BD43F020030E
:103A580093618B685C07FCD4F7E72E4A936819B129
:103A680023F400439360F0E743F40043FAE7294A5C
:103A7800936811B123F4C043F4E743F4C043F1E77A
:103A8800244A936923F0180319B143F0080393619A
:103A9800DBE743F01003FAE701210E20FFF768FD8A
:103AA8001E4BD3F80421CCB190060BD4D3F80421D3
:103AB80042F02002C3F80421D3F8042122F0800246
:103AC800C3F80421154BD3F8042142F00402C3F8CB
:103AD8000421D3F808219107FBD5B6E722F00402A8
:103AE800C3F80421D3F808219207FBD4ADE7094AAB
:103AF8000949936934B123F0400393618B68002B23
:103B0800FCDAA2E743F0400393618B68002BFCDBEF
:103B18009BE700BF0080004000820040009000400A
:103B28003F281ED82F280DD90123303803FA00F07A
:103B38004FF08043DA6911B91043D861704722EA1F
:103B48000000FAE7A0F12003DBB2022B98BF0D209A
:103B5800012303FA00F04FF080439A6911B910432A
:103B68009861704722EA0000FAE708B500210320AF
:103B7800FFF7FEFC01210320FFF7D2FFBDE8084054
:103B880000210320FFF7CCBF034940F6FF53CA6A60
:103B980033EA0202FBD1704700E0004008B5FFF7A6
:103BA800F3FF054B1A6818B142F080521A6008BD3D
:103BB80022F08052FAE700BF00E0004008B5FFF7A6
:103BC800E3FF054B1A6818B142F080721A6008BD0D
:103BD80022F08072FAE700BF00E00040012808B533
:103BE8000AD8FFF7D1FF054B1A6801280CBF42F02D
:103BF800007222F000721A6008BD00BF00E00040A9
:103C0800F8B5054600285ED0314B5F6BB9B25E6CE3
:103C18005A6CB242FBD19C6C9A6CA242FBD15A6B93
:103C280092B29142F1D10029EFD0FFF79BFCBFB2CD
:103C380007EE907AB8EEE77AF6EE007A002843D1DC
:103C4800DFED246AC6F3021306F00F0203EB8303C9
:103C580002EB4303EB71C6F3C223C6F3C31203EBB3
:103C6800830302EB4303AB71C6F3814303EB830386
:103C7800C6F3833606EB4306C4F3011304F00F02C0
:103C880003EB830302EB43032B71C4F38023C4F3D8
:103C9800831203EB830302EB4303E7EE267AEB7010
:103CA800C4F3C223AB70C4F3834303EB8303C4F3AD
:103CB8008334FCEEE77A04EB430404F5FA64C5EDBB
:103CC800027A6E712C80F8BDDFED036ABAE700BF97
:103CD80000E000400024F4410000FA41402810B5FB
:103CE8000C4608D0431EDBB21F2B09D8054A22FA1E
:103CF80003F3DB0704D5FFF747FF0CB9024BD86184
:103D080010BD00BF8B80008000E00040402808B54F
:103D180008D0431EDBB21F2B0ED8084A22FA03F341
:103D2800DB0709D5FFF730FF054BDB6930EA0303F2
:103D38000CBF0120002008BD0020FCE78B8000801C
:103D480000E0004080280AD0402808D0431EDBB29B
:103D58001F2B0DD8074A22FA03F3DB0708D50129E0
:103D680006D8054B9A6A0CBF104322EA00009862F5
:103D7800704700BF8B80008000E0004008B518B194
:103D8800FFF702FF014B986108BD00BF00E000404B
:103D980030B1054BDA6A02601B6B43600020704744
:103DA8004FF0FF30704700BF0000024083699B0658
:103DB800FCD4016070474FF4E133036060238380D3
:103DC800002383714FF4401383607047036B19B16C
:103DD80043F001030363704723F00103FAE700008F
:103DE80038B5036B23F001030363C36A23F01003A0
:103DF800C36200238363464B984204460D463ED176
:103E0800FFF798FBC00B0138022850D8414B53F8F4
:103E180020002B68B0EB031F4FEA031175D36BB179
:103E2800B0FBF1F201FB1200C000B0FBF3F000F0B0
:103E3800010303EB500080B240EA02431A0C03F07E
:103E48003F036262A362E36A2A7923F060031343A3
:103E5800E362E36AAA7923F008031343E362EB7A87
:103E68008BB3E36A43F01003E3626B79012B2ED026
:103E7800022B42D09BBBE36A23F002032EE0B0F191
:103E8800402F04D1FFF75CFBC0F34F30BBE7224B58
:103E9800984204D1FFF75AFBC0F3CF20B3E71F4B7A
:103EA80098420ED1FFF758FBC0F34F20ABE7184BF1
:103EB8009C4202D0B4F1402F03D10220FFF7D8FA78
:103EC800A7E70320FAE7E36A23F01003CCE7E36AE5
:103ED80043F00203E362E36A23F00403E362236B23
:103EE800AA7A23F0300313432363236B2A8923F42C
:103EF800404313432363002038BDE36A43F00203C1
:103F0800E362E36A43F00403E8E74FF0FF30F3E7C6
:103F180000300040409B00080000014000100140B4
:103F2800FFF796B810B501F067FC044601F0F0FC05
:103F3800064B1B68011B241A03B910BD1A688A4274
:103F48008CBF121900221A601B69F5E7C006002011
:103F5800054A13680BB1002119720361012310602F
:103F68000372006801F0F8BBC006002073B502AB0D
:103F780003E9030001F046FCBDF90430009D064C3E
:103F88004FF47A76DA17E5FB06321B1A62EB010268
:103F9800C4E9023202B070BDC00600200023C0E9A7
:103FA8000033C0E9031303727047000070B504467C
:103FB80001F0EFFC64B11A4E3268134663B96168C8
:103FC8002160237262B901F0A3FC2046FFF7C0FF0D
:103FD800BDE8704001F0DFBC9C42F9D01B69EDE7F9
:103FE80001F0A2FC226833680244226019688A4200
:103FF800054605D2FFF796FF2068401B2060E4E7DE
:104008001969186910B91C612061E1E708688242E2
:1040180002D90B460969F4E71C612161D8E700BFA2
:10402800C006002070B5184CFFF77CFF23682BB141
:104038001A69DB68226003B9FEE798470025236800
:1040480033B9FFF76FFF2368A3B970BD9847F6E748
:104058001E6801F069FC864275EB010303D32368EF
:104068001B68002BEDD123681A69DB682260002BDE
:10407800ECD1FEE71A7A002AE7D10122BDE87040A8
:1040880018681A7201F068BBC006002070B5164D9A
:10409800044601F07EFC2B6803B11CB9BDE87040F2
:1040A80001F079BCA34215D1237A266983B16EB198
:1040B800002323722E60FFF735FF2B680122186852
:1040C8001A7201F049FB00232372E7E701F08AFB2B
:1040D8002E60F8E71A461B69002BF4D09C42F9D1F0
:1040E80023691361EFE700BFC006002038B5044616
:1040F8000D46FFF7CBFFC4E9005538BD08B501F000
:1041080081FB034AD2E90232C01842EB010108BD23
:10411800C006002070B50446FFF7F0FF4FF47A722E
:10412800002306460D46FCF7ABFD294620604FF4F8
:104138007A7230460023FCF7A3FD2046A28070BDAA
:1041480038B504460D46FFF7D9FF001B61EB0501A2
:1041580038BD0000064A137C042B04D8137C0133B5
:10416800DBB2137470470023137401F0E9BB00BF7E
:10417800C006002010B5102204460021043001F0CA
:10418800DAFD0023236010BD002308461A461021DB
:10419800FBF7E2BF2DE9F0430746054657F8140B35
:1041A80085B00E46144620B3C0F110099145C846A3
:1041B80028BF90461FFA88F2384401F0A8FD2B6802
:1041C80043440F2B2B601CD9A1451AD22A1D134634
:1041D80012F8011BD07BBA4281EA000102F8011CE7
:1041E800F6D1002210211846FCF73EF84644A4EB0D
:1041F8000804102C08D8A2B23146384601F087FDD1
:104208002C6005B0BDE8F0832B1D711E98461A7806
:1042180011F8010F424003F8012BBB42F7D11022DD
:104228004146684601F073FD6B460022102168463E
:10423800FCF71AF810226946404601F068FD10366E
:10424800103CD6E72DE9F04188B0102207460C460D
:104258006846002101F06FFD6B4600221021684678
:10426800FCF702F89DF90030002B6A464FF0000178
:1042780041DA137812F8010F01315B0043EAD013D9
:104288000F2902F8013CF4D19DF80F305B0083F050
:10429800870321688DF80F3010293BD104F11403EE
:1042A800694604F124001A7811F8015B6A4003F8A2
:1042B800012B9842F7D1221D1146143412F8013B04
:1042C800D07BA24283EA000302F8013CF6D1102217
:1042D8000DEB020001F01BFD10213B460DEB010028
:1042E8000022FBF7C1FF10220021684601F023FDE0
:1042F80008B0BDE8F081137812F8010F01315B00B6
:1043080043EAD0130F2902F8013CF4D19DF80F308D
:104318005B00BEE79DF90030002B6A464FF00000B5
:1043280035DA137812F8015F01305B0043EAD513E0
:104338000F2802F8013CF4D19DF80F305B0083F0A0
:10434800870301F101088DF80F30B8F1100F04EB65
:104358000103C1F10F064FF0800288BF002601F16A
:1043680015001A75002132462044FCF703FF214648
:10437800464441F8146B6A4604F124000B7812F89D
:10438800015B6B4001F8013B8842F7D193E7137852
:1043980012F8015F01305B0043EAD5130F2802F8D9
:1043A800013CF4D19DF80F305B00CAE7012070474B
:1043B800034B1B6813B15B6803B11847704700BF14
:1043C800D4060020034B1B6813B1DB6803B1184700
:1043D800704700BFD4060020002000F01DBE00007A
:1043E80038B5164C254645F8040B00F055FF00205B
:1043F80000F012FE012000F0BEFE0021084601F088
:10440800EDF80421002000F09FFF0023194618460C
:104418001A4600F00BFF28460949FFF7BFFD04F1D3
:1044280018000849FFF7BAFD04F12C000649FFF708
:10443800B5FD002084F8400038BD00BFD406002038
:10444800B9430008CD430008C145000808B500F08D
:1044580061FDC31EDBB2022B9ABFC0F10600C0B2D9
:10446800002008BD00F02CBF08B501F0C4F800B268
:1044780008BD01F0BBBB01F085BB000070B500238F
:104488000C4640F201211A460646084600F0CEFEC8
:1044980000F054FF0C4D01280C480CBF85F8534020
:1044A80085F84C4001F016F821463046002200F00D
:1044B800DFFDD5F880100648FFF718FEBDE870400C
:1044C8000348FFF773BD00BFD4060020180700207B
:1044D800D806002008B54FF0040000F08BFDBDE8B9
:1044E80008400220FFF71CBD00F0FEBD37B5184B91
:1044F80093F87C500F2805F10D05EDB222D8072856
:1045080022D8032822D8012894BF0024012400239C
:104518004FF4C0711A46084600F088FE0023009345
:104528000A222946204601F03BF800F0FBFD094825
:104538004FF4FA61FFF7DAFD064803B0BDE83040F2
:10454800FFF734BD0424E2E70324E0E70224DEE7B2
:10455800D40600200007002010B50C462DED028B74
:1045680008EE102A00F0ACFE204601F093FB00F0A4
:10457800E5FDDFED0A7A0A48B8EEC88A28EE278AF0
:10458800FCEEC87A17EE901AFFF7B0FDBDEC028B6F
:104598000348BDE81040FFF709BD00BF00007A449A
:1045A800EC06002001F0CABA01F0F8BA08B501F02B
:1045B8002FFA033008BD000010B5002000F0B0FC51
:1045C800044B1B682BB19B691BB1BDE81040002050
:1045D800184710BDD406002010B590B10A4B01222F
:1045E80019461C68A04206D39C68A04203D201EB7E
:1045F800C202107910BD0132162A03F10803F0D166
:10460800FEE71F20F6E700BF509B00080128094875
:1046180006D1094B80F853101970443000F05ABF86
:1046280090F84B30012B04D1034B80F84C101970D3
:10463800F3E77047D406002022000020002340F250
:10464800422110B51A460446084600F0EFFD34B181
:104658000A482146FFF74AFD0848FFF7A7FC084B20
:1046680093F884202AB16FF07F40BDE8104000F035
:1046780009BDD3F888008001F7E700BFEC060020E9
:10468800D40600200023022110B51A460446084625
:1046980000F0CCFD34B10A482146FFF727FD084851
:1046A800FFF784FC074B93F884202AB16FF07F4012
:1046B800BDE8104000F0FCBCD3F888008001F7E7A3
:1046C800EC060020D406002037B5574C94F840304B
:1046D800002B00F0A68001F05CF9002384F840303C
:1046E80001F059F9B4F88C30D9070AD5201DFFF725
:1046F800CDFC012000F014FC236813B11B6803B142
:104708009847B4F88C309A0732D54848FFF7BEFC72
:1047180094F8845095B9012000F002FC294640F62F
:10472800021001F02FFA40F6441001F05FFA40F051
:104738000200C1B240F6441001F024FAFF220DF144
:1047480007013B4800F088FF3A4800F09FFF2368C4
:1047580073B19D6865B1B4F88C305B0608D494F9E0
:104768009D3194F99C219DF8071031481A44A847B7
:10477800B4F88C3058060AD594F8843013B901205F
:1047880000F0CEFB236813B11B6903B19847B4F856
:104798008C3019060ED52848FFF778FC012000F068
:1047A800BFFB236833B19B6923B1B4F88C00C0F315
:1047B80000209847B4F88C309A050ED500F0AAFB73
:1047C80004281FD11D48FFF761FC012000F0A8FB59
:1047D800236813B15B6803B19847B4F88C309B0623
:1047E8001FD51248FFF752FC94F8843013B9012002
:1047F80000F096FB2368A3B1DB6893B103B0BDE872
:104808003040184700F086FB0528E6D10748FFF737
:104818003DFC012000F084FB2368002BDDD0DB6821
:10482800D9E703B030BD00BFD4060020EC06002055
:10483800620700206408002000070020D806002036
:104848000E4B10B5044683F8A40183F8A50100F0C7
:1048580017F85CB134214FF4E86001F093F9442172
:10486800BDE8104040F2417001F08CB914214FF4BA
:10487800E86001F087F92421F2E700BFD4060020A0
:1048880008B5012000F04AFD064B93F8A40193F8FF
:10489800A521824205D083F8A501BDE80840FFF7AD
:1048A800CFBF08BDD4060020012808B507D00020D6
:1048B80000F034FD044B002283F8A52108BDBDE8B3
:1048C8000840FFF7DDBF00BFD406002070B50D46D5
:1048D80016461C46FFF7E8FF284600F0F1FC0020CA
:1048E800FFF7ACFE0120FFF71BFBFFF707FC0546AF
:1048F80028460021FFF724FCA04271F1000304D3ED
:104908000124FFF7E7FD204670BD00F074FE00B2F9
:104918008642EDDA0024F4E737B5FFF7B1FF00204F
:1049280000F0B0FB002425460120FFF7F9FA00F05B
:1049380062FE00F00103A3400134202C45EA030580
:10494800F2D101F0BDF928440190FFF7C3FD0198A9
:1049580003B030BD0A2838B50DD8084B03EBC000AA
:10496800D0E92C4501208840FBF73EFE22462B4625
:10497800FBF7CEFF38BD00240025F3E7509B000865
:104988002DE9F04F85B00E469DF84C1000919DF82A
:104998005C109DF84470BDF840907B4CDFF804A291
:1049A800BDF83C8084F88410002918BF4FF0000936
:1049B800002F15469DF8482008BFFF228AF80020DE
:1049C800834620B101286DD005B0BDE8F08F00F016
:1049D800BAFB0B23304684F8783084F86CB025672E
:1049E800FFF7FAFD41F60403A4F848309AF80030BE
:1049F80084F84C30009B84F87900002B14BFF22314
:104A0800012387F0010784F84D304FEAC8080123D5
:104A180084F84E3084F84B7084F844B0A4F846808B
:104A280084F84AB0FFF7D8FC94F86C00003818BF37
:104A38000120FFF739FF04F16C0000F0E5FC04F1F8
:104A4800440000F047FD514AD2F80801D2F80C1191
:104A580002AB03C302A800F080FA40F2FF1000F096
:104A6800ADFA2846FBF7B0FD02460B460020484940
:104A7800FBF74EFF474B0022FBF720FE0646484651
:104A88000F46FBF7B1FD02460B4630463946FBF7A9
:104A980015FE414B0022FBF711FEFCF7D1F8C4F8D4
:104AA800880091E70020019300F04DFB5FFA89F040
:104AB80000F055FB354A019B84F86CB032445FFA2C
:104AC80085F992F8100184F87C9084F87D0084F8C8
:104AD8007E30CEBB0B3D012D3AD80123A9F1050943
:104AE800994584F87FB084F844303FD8B8F10B0F6B
:104AF8003CD80C23A4F850309AF8003084F853308E
:104B0800009B84F854309DF8583084F8553084F868
:104B18005270FFF7B5FE214800F076FC204800F0FF
:104B2800D9FC94F85530012B40F2367021D101F0B0
:104B38005DF800F0FB0140F2367001F023F84FF603
:104B4800FF73C4F888303FE7012E01D10C2DC4D083
:104B58004946FFF7FFFE0AA3D3E90023FCF734F820
:104B6800B0F1000B18BF4FF0010BB6E7A4F8508066
:104B7800C2E701F03BF840F00400C1B2DBE700BF38
:104B8800000000A047613040D4060020509B000878
:104B98000000F03F0000204000408F404007002008
:104BA80018070020220000202DE9F74F0C9EBDF8C1
:104BB80038709DF83C909DF840B0614C8A4690460C
:104BC800054648B101284DD040F6890001F00EF89D
:104BD80040F00400C1B28EE00B2284F86C00184645
:104BE80084F878202667FFF7F7FC41F60403BBF149
:104BF800000FA4F8483014BFF223012384F84D3085
:104C0800FF00012389F0010984F84E3084F8790007
:104C1800C4F8748084F84450A4F8467084F84A5064
:104C280084F84B90FFF7D8FB94F86C00003818BF55
:104C38000120FFF739FE04F16C0000F0E5FB04F1F8
:104C4800440000F047FC3F4AD2F80801D2F80C11A2
:104C58006B4603C3684600F080F940F2FF1000F08D
:104C6800ADF9B1E7374A9DF8341084F86C001A445E
:104C78005FFA86F892F8100184F87C8084F87D0049
:104C880084F87E10002B43D10B3E012E44D801231B
:104C9800A8F10508984584F87F5084F8443047D82F
:104CA8000B2F45D80C23A4F85030274B84F852908A
:104CB8001B7884F853309DF84C3084F8553084F8CC
:104CC80054B0FFF789FB94F86C00003818BF012036
:104CD800FFF7EAFD1D4800F097FB1D4800F0FAFBBE
:104CE80094F87D30062B7FF46FAF40F6890000F012
:104CF8007DFF00F0FB0140F6890000F043FF5046BD
:104D080000F0C8FF149BC4F8803003B0BDE8F08FF2
:104D1800012B01D10C2EBAD04146FFF71BFE06A38A
:104D2800D3E90023FBF750FF051E18BF0125AEE7A6
:104D3800A4F85070B9E700BF000000A047613040F8
:104D4800D4060020509B00082200002040070020C5
:104D580018070020000000002DE9F74F884628B109
:104D6800012841D0002003B0BDE8F08F5C4A9FEDD8
:104D78005D6A92F84910B2F8463003EBD10307EEAA
:104D8800903A92F84B30F8EEE77A002B07EE108A4B
:104D9800F7EE006A08BFF0EE466A77EEA67AB8EE3C
:104DA800C77A92F84D3077EE877A022BB0EE007A08
:104DB80018BFB0EE467A77EE877AB2EE007A67EEE1
:104DC800877A92ED1C7AB8EE477AC7EE876ADFEDEC
:104DD800467A66EEA77A17EE900AFBF717FCFCF7FF
:104DE80047FBFBF72DFFBEE7DFF8F4A09AF87CB08D
:104DF8009AF87D005946FFF7ADFDBAF8503007EE36
:104E0800903AF8EEE77AB1EE017A77EE877A0446BF
:104E18000D4617EE900AFBF7F9FB22462B46FBF7E7
:104E28004DFC9AF852300646CBEB48089AF85400E5
:104E3800012B08F1070808EB80080CBF142000209C
:104E4800C0EB88000F46FBF7CFFB9AF87F30002BAA
:104E5800804614BF02200020ABEB0000800089468A
:104E6800FBF7C2FB02460B4640464946FBF750FD9E
:104E7800FCF706FA02469AF87E0000F003000B469B
:104E88000430CDE90023FBF7AFFBDDE90023FBF796
:104E980015FC0022002380468946FBF79FFE18B9BF
:104EA8004FF000084FF00009104B002240464946D9
:104EB800FBF74EFA22462B46FBF700FC32463B46F0
:104EC800FBF746FA04A3D3E90023FBF741FAFCF702
:104ED80053FA86E7AFF30080000000E0CEF7EF3F1B
:104EE800D40600200000000000007A4400002040A2
:104EF80010B5074C012384F8403000F0B3F9A4F84A
:104F08008C00BDE810404FF6FF7000F0FFBB00BFFB
:104F1800D4060020014B1878704700BF7C08002099
:104F2800014B1870704700BF7C08002008B5074B7C
:104F38001A7812B11B78062B03D100F0A1FD00F0FE
:104F4800AFFEBDE8084000F08FBD00BF7C08002020
:104F58000A460146002000F055BE08B50146082261
:104F68004FF4D86000F0EAFD002008BD07B5030A39
:104F78008DF80430064B8DF805005B782BB90222BA
:104F880001A940F2BC6000F0D9FD03B05DF804FB54
:104F98007C08002007B5030A8DF80430064B8DF80D
:104FA80005005B782BB9022201A940F2BE6000F02F
:104FB800C5FD03B05DF804FB7C08002010B50C4B60
:104FC8005B7804469BB94FF4D76000F00FFEC4F33A
:104FD800002100F0FE0001434FF4D76000F0D2FD3D
:104FE800E1B240F2B960BDE8104000F0CBBD10BDA1
:104FF8007C08002007B58DF8040000F059FE012256
:1050080001A9842000F054FD024B00221A7003B05D
:105018005DF804FB7C08002007B501228DF8070025
:105028000DF10701802000F043FD9DF80720044B97
:1050380022B901221A7003B05DF804FB0222F9E7D5
:105048007C08002007B5094B8DF8060004221A7069
:10505800030C8DF804300322030A01A983208DF87C
:10506800053000F025FD03B05DF804FB7C08002046
:1050780010B51446FFF76CFF2046BDE81040FFF757
:10508800E1BF000007B5094B8DF8060005221A702C
:10509800030C8DF804300322030A01A982208DF83D
:1050A800053000F005FD03B05DF804FB7C08002026
:1050B80013B50C4B04460522962140F6AC001A7035
:1050C80000F060FD230C8DF804300322230A01A9A7
:1050D80082208DF805308DF8064000F0E9FC02B01A
:1050E80010BD00BF7C08002007B5030C8DF8003008
:1050F800030A8DF801300B0C8DF802008DF803308F
:105108008DF805100B0A0622694694208DF80430A4
:1051180000F0CEFC024B06221A7003B05DF804FBC7
:105128007C080020002208B51146C52000F0C0FC0C
:10513800014B07221A7008BD7C0800200022114686
:10514800D12000F0B5BC07B501228DF807000DF19C
:1051580007019F2000F0ACFC03B05DF804FB07B525
:1051680001228DF807000DF10701A02000F0A0FC36
:1051780003B05DF804FB07B501228DF807000DF1B7
:105188000701962000F094FC03B05DF804FB0000D2
:10519800184B984207B50DD9E1238DF80430E9235F
:1051A8008DF80530022201A9982000F081FC03B097
:1051B8005DF804FB104B984204D9D7238DF80430CE
:1051C800D823EDE70D4B984204D9C1238DF804305C
:1051D800C523E5E70A4B984204D975238DF80430B6
:1051E8008123DDE7074B9842DCD96B238DF8043027
:1051F8006F23D5E700E9A43580F8A9328044E52D6E
:10520800000B6B1B40FC541907B58DF806200422CF
:105218008DF804008DF8051095200DEB02018DF82E
:10522800073000F045FC03B05DF804FB13B5040A31
:105238008DF801008DF80310080A8DF80520110A71
:105248001A0A8DF8062008228DF802008DF804103D
:10525800104669468DF800408DF8073000F028FCAC
:1052680002B010BD07B5022201A9122000F042FCCD
:10527800BDF8040040BA80B203B05DF804FB07B57E
:1052880001228DF807000DF107019D2000F010FCA8
:1052980003B05DF804FB000008B500F08BFB00F0DC
:1052A800B9FB00F0EDFB0020FFF7B6FE0120FFF789
:1052B800E6FF024B01221A7008BD00BF7C080020DF
:1052C80037B5154DAB7804461BB9FFF761FF0123CD
:1052D800AB702046FBF778F90DA3D3E90023FBF761
:1052E80017FBFBF7ADFC030E8DF804300422030C0A
:1052F8008DF805308DF80700030A0DEB02018620B2
:105308008DF8063000F0D4FB03B030BDAFF3008059
:10531800000000008084EE3F7C08002007B5064BA3
:105328008DF80700587001220DF107018A2000F05E
:10533800BFFB03B05DF804FB7C080020014B5878E4
:10534800704700BF7C08002037B5044600200D4692
:1053580000F0A3FC0128034620D10F2C02464FF091
:1053680000010CBF06200420FFF74EFF6FF002007B
:105378008442B8BF04460E2CA8BF0E24182140F65C
:10538800E70000F0FFFB022201A98E208DF80440FF
:105398008DF8055000F08CFB03B030BD40F6D80006
:1053A80000F024FC40F01E00C1B240F6D80000F026
:1053B800E9FB134B1878022818D0032806D00128D7
:1053C80018D1034600220521032003E0022101230E
:1053D80000220846FFF718FF6FF002008442B8BFAA
:1053E8000446162CA8BF16243821C8E7012300223A
:1053F8000321EFE70123002207210420EAE700BF89
:10540800A50800200000000013B52F4A0446516883
:1054180010686B4603C32D4B20785B78834201D01C
:10542800FFF77CFF23781BB1012B37D002B010BDEA
:105438006068FBF7C9F802460B461FA1D1E90001D5
:10544800FBF766FA0022224BFBF738F9FBF7F8FB6B
:10545800030C8DF80030030A8DF80130237B8DF89A
:1054680002008DF80330A068637B8DF80430FBF7E9
:10547800ABF813A3D3E90023FBF74AFAFBF7E0FBE9
:10548800030C8DF80530030A8DF806308DF80700F7
:10549800082269468B2000F00BFBC7E7237C8DF8B8
:1054A8000030637C8DF80130A37C8DF80230E37CFA
:1054B8008DF803300422ECE70000000080847E4170
:1054C800000000008084EE3FD89C00087C08002083
:1054D800000040401FB5304A0446D1689068127CED
:1054E80001AB03C31A702D4B20785B78834201D03F
:1054F800FFF714FF23781BB1012B39D004B010BD7E
:10550800637AF12B28D14FF6FF70FFF72FFD48F291
:105518000500FFF73FFD022362888DF80520110A78
:1055280022798DF8062062798DF80720A2798DF806
:105538000820E2798DF809208DF80B30227AA37AB9
:105548008DF80A208DF804108DF80C30092201A975
:105558008C2000F0ADFAD1E7F22BDDD141F60F50E7
:10556800FFF704FD41F22100FFF714FD0623D3E7FE
:10557800A3898DF805301A0AA37B8DF80630E37BE2
:105588008DF80730237C8DF80830637C8DF8042073
:105598008DF809300622DAE7D89C00087C0800203C
:1055A80013B5049C8DF80330230C8DF800008DF89A
:1055B80001108DF802208DF804300522230A69466F
:1055C80088208DF805308DF8064000F071FA024BFE
:1055D80007221A7002B010BD7C08002007B502220D
:1055E8008DF804008DF805108F2001A900F060FAED
:1055F80003B05DF804FB07B5012201A9152000F0EE
:1056080079FA9DF804004042401003B05DF804FBAD
:1056180037B504460D46022201A9132000F06AFAA4
:105628000C4B5B78012B11D140F2047000F0DEFACC
:10563800C0F3C710012809D140F2027000F0D6FA71
:1056480020709DF805302B7003B030BD9DF80430F4
:105658002370F6E77C080020F7B50D4606460024BF
:105668000DF10701284617468DF80740FFF7D0FFD0
:105678002A78BA4207D89DF80700314600F0E4FAC4
:10568800204603B0F0BD0120FBE7000013B503225C
:10569800044601A9142000F02DFA1B494A7822700B
:1056A8004AB1012A17D0142200212046FBF762FDD7
:1056B8000F2323700DE09DF8043023719DF8053009
:1056C800A2605B425B10A3719DF806305B425B10E1
:1056D800637102B010BD9DF804309DF905205B424E
:1056E8005B1023739DF80530002AB6BFA3F58073BD
:1056F8009B089B1063739DF806305B425B10A37395
:105708004B682361E5E700BF7C08002007B502224B
:10571800030A8DF8050001A910468DF8043000F041
:10572800C7F903B05DF804FB10B5094C23786BB9D1
:10573800FEF71BFA01210320FDF71AFF0120FEF7EF
:105748002DFA044B02221A600123237010BD00BFFA
:105758008808002000E100E070B5052886B038BF51
:10576800052003AC05462046FEF74AFA94E80700F0
:105778001A4C6B4683E8070084E807000020FEF710
:105788001DFAFDF7EFFE0228284614BF4FF4004625
:105798004FF4FA46FAF718FF044630460D46FAF772
:1057A80013FF02460B4620462946FAF787FF0C4BA3
:1057B8000022FBF7ADF8FBF7F7FEFBF779FAFEF7E7
:1057C800DDFA0120FEF70AFA0120FEF7F7F90121B8
:1057D800102006B0BDE87040FEF7B4BA8C0800206F
:1057E80000408F4008B50020FEF7E8F9BDE8084002
:1057F80000211020FEF7A6BA014BD3E90401704737
:10580800880800202DE9F04F87B003A8FEF7F8F9C3
:10581800BDF80C40059A9DF80FC09DF810509DF8F2
:1058280011309DF812709DF813E0DFF8DC80DFF886
:10583800DC900192002631463246A4F5FA6A30B26D
:1058480050451FFA86FB15DB14F003040CF1FF3CEE
:1058580051D02B4EDFF8AC800024E0B2604504F153
:1058680001041FDA3044007B08FB00F0411842F1C4
:105878000002F2E710B11BF0030F05D111EB08018C
:1058880042F100020136DAE711EB0901F8E7305C72
:1058980008FB00F0411842F10002E0B2604504F153
:1058A8000104F4DB4FF461603C24A7FB0474A3FB00
:1058B8000003C01943EB040310EB0E0E05F1FF3093
:1058C800104D05FB00F043F100031EEB000043F10F
:1058D8000003401842EB03024FF47A73A0FB030164
:1058E80003FB0211019AB2FBF3F3C01841F1000166
:1058F80007B0BDE8F08F024EDFF80880CDE700BFA3
:10590800E99C0008805101000085E2018033E10133
:1059180038B5FFF777FF034B04460D46C3E9044546
:1059280038BD00BF8808002008B5FFF76BFF034AA1
:10593800D2E90432C01A61EB020108BD88080020D0
:1059480008B5064B5B68984730B9FEF71DF9BDE806
:1059580008400320FDF77CBD08BD00BF6C9C000813
:1059680008B51020FEF7D2F990B10020FEF726F90D
:1059780000211020FEF7E6F900211020FEF7AEF90D
:10598800FEF750FBBDE8084001211020FEF7DAB908
:1059980008BD72B6704762B670470000044B986045
:1059A800DA6802F01102012AFAD19868C0B2704789
:1059B8000090004010B5134C4FF40073C4F8003148
:1059C8000723236002232361D4F80431802B0BD0F2
:1059D8001420FDF725FB0023C4F80C311420FDF733
:1059E8001FFB0123C4F80C31064B074802225A60FA
:1059F800064B4FF400121A60BDE8104003220B2139
:105A0800FDF7A4BC0090004000FC014000E100E06C
:105A18000520704710B5134CD4F8043123F0200347
:105A2800C4F804316420FDF7FBFAD4F8043143F0DC
:105A38002003C4F80431D4F8043123F08003C4F8F7
:105A48000431D4F8003143F02003C4F80031D4F80D
:105A5800043143F00103C4F80431D4F80831DB05FC
:105A6800FBD410BD0090004008B50A20FDF7D8FA15
:105A7800024AD2F80831DB05FBD408BD009000408B
:105A880038B572B6094C0025C4F80C511420FDF73E
:105A9800C7FAC020FFF782FF2846FFF77FFF0123E0
:105AA800C4F80C31FFF7E0FF62B638BD0090004043
:105AB800F8B50F4F154606460C46FFF737FA002390
:105AC800C7F80C313046FFF769FF2544AC4208D1CE
